{
  "contractName": "OfficialStore",
  "abi": [
    {
      "inputs": [],
      "stateMutability": "nonpayable",
      "type": "constructor"
    },
    {
      "anonymous": false,
      "inputs": [
        {
          "indexed": true,
          "internalType": "address",
          "name": "owner",
          "type": "address"
        },
        {
          "indexed": true,
          "internalType": "address",
          "name": "approved",
          "type": "address"
        },
        {
          "indexed": true,
          "internalType": "uint256",
          "name": "tokenId",
          "type": "uint256"
        }
      ],
      "name": "Approval",
      "type": "event"
    },
    {
      "anonymous": false,
      "inputs": [
        {
          "indexed": true,
          "internalType": "address",
          "name": "owner",
          "type": "address"
        },
        {
          "indexed": true,
          "internalType": "address",
          "name": "operator",
          "type": "address"
        },
        {
          "indexed": false,
          "internalType": "bool",
          "name": "approved",
          "type": "bool"
        }
      ],
      "name": "ApprovalForAll",
      "type": "event"
    },
    {
      "anonymous": false,
      "inputs": [
        {
          "indexed": true,
          "internalType": "address",
          "name": "previousOwner",
          "type": "address"
        },
        {
          "indexed": true,
          "internalType": "address",
          "name": "newOwner",
          "type": "address"
        }
      ],
      "name": "OwnershipTransferred",
      "type": "event"
    },
    {
      "anonymous": false,
      "inputs": [
        {
          "indexed": true,
          "internalType": "address",
          "name": "from",
          "type": "address"
        },
        {
          "indexed": true,
          "internalType": "address",
          "name": "to",
          "type": "address"
        },
        {
          "indexed": true,
          "internalType": "uint256",
          "name": "tokenId",
          "type": "uint256"
        }
      ],
      "name": "Transfer",
      "type": "event"
    },
    {
      "inputs": [
        {
          "internalType": "address",
          "name": "to",
          "type": "address"
        },
        {
          "internalType": "uint256",
          "name": "tokenId",
          "type": "uint256"
        }
      ],
      "name": "approve",
      "outputs": [],
      "stateMutability": "nonpayable",
      "type": "function"
    },
    {
      "inputs": [
        {
          "internalType": "address",
          "name": "owner",
          "type": "address"
        }
      ],
      "name": "balanceOf",
      "outputs": [
        {
          "internalType": "uint256",
          "name": "",
          "type": "uint256"
        }
      ],
      "stateMutability": "view",
      "type": "function",
      "constant": true
    },
    {
      "inputs": [
        {
          "internalType": "uint256",
          "name": "tokenId",
          "type": "uint256"
        }
      ],
      "name": "getApproved",
      "outputs": [
        {
          "internalType": "address",
          "name": "",
          "type": "address"
        }
      ],
      "stateMutability": "view",
      "type": "function",
      "constant": true
    },
    {
      "inputs": [
        {
          "internalType": "address",
          "name": "owner",
          "type": "address"
        },
        {
          "internalType": "address",
          "name": "operator",
          "type": "address"
        }
      ],
      "name": "isApprovedForAll",
      "outputs": [
        {
          "internalType": "bool",
          "name": "",
          "type": "bool"
        }
      ],
      "stateMutability": "view",
      "type": "function",
      "constant": true
    },
    {
      "inputs": [],
      "name": "name",
      "outputs": [
        {
          "internalType": "string",
          "name": "",
          "type": "string"
        }
      ],
      "stateMutability": "view",
      "type": "function",
      "constant": true
    },
    {
      "inputs": [],
      "name": "owner",
      "outputs": [
        {
          "internalType": "address",
          "name": "",
          "type": "address"
        }
      ],
      "stateMutability": "view",
      "type": "function",
      "constant": true
    },
    {
      "inputs": [
        {
          "internalType": "uint256",
          "name": "tokenId",
          "type": "uint256"
        }
      ],
      "name": "ownerOf",
      "outputs": [
        {
          "internalType": "address",
          "name": "",
          "type": "address"
        }
      ],
      "stateMutability": "view",
      "type": "function",
      "constant": true
    },
    {
      "inputs": [],
      "name": "renounceOwnership",
      "outputs": [],
      "stateMutability": "nonpayable",
      "type": "function"
    },
    {
      "inputs": [
        {
          "internalType": "address",
          "name": "from",
          "type": "address"
        },
        {
          "internalType": "address",
          "name": "to",
          "type": "address"
        },
        {
          "internalType": "uint256",
          "name": "tokenId",
          "type": "uint256"
        }
      ],
      "name": "safeTransferFrom",
      "outputs": [],
      "stateMutability": "nonpayable",
      "type": "function"
    },
    {
      "inputs": [
        {
          "internalType": "address",
          "name": "from",
          "type": "address"
        },
        {
          "internalType": "address",
          "name": "to",
          "type": "address"
        },
        {
          "internalType": "uint256",
          "name": "tokenId",
          "type": "uint256"
        },
        {
          "internalType": "bytes",
          "name": "data",
          "type": "bytes"
        }
      ],
      "name": "safeTransferFrom",
      "outputs": [],
      "stateMutability": "nonpayable",
      "type": "function"
    },
    {
      "inputs": [
        {
          "internalType": "address",
          "name": "operator",
          "type": "address"
        },
        {
          "internalType": "bool",
          "name": "approved",
          "type": "bool"
        }
      ],
      "name": "setApprovalForAll",
      "outputs": [],
      "stateMutability": "nonpayable",
      "type": "function"
    },
    {
      "inputs": [
        {
          "internalType": "bytes4",
          "name": "interfaceId",
          "type": "bytes4"
        }
      ],
      "name": "supportsInterface",
      "outputs": [
        {
          "internalType": "bool",
          "name": "",
          "type": "bool"
        }
      ],
      "stateMutability": "view",
      "type": "function",
      "constant": true
    },
    {
      "inputs": [],
      "name": "symbol",
      "outputs": [
        {
          "internalType": "string",
          "name": "",
          "type": "string"
        }
      ],
      "stateMutability": "view",
      "type": "function",
      "constant": true
    },
    {
      "inputs": [
        {
          "internalType": "uint256",
          "name": "tokenId",
          "type": "uint256"
        }
      ],
      "name": "tokenURI",
      "outputs": [
        {
          "internalType": "string",
          "name": "",
          "type": "string"
        }
      ],
      "stateMutability": "view",
      "type": "function",
      "constant": true
    },
    {
      "inputs": [
        {
          "internalType": "address",
          "name": "from",
          "type": "address"
        },
        {
          "internalType": "address",
          "name": "to",
          "type": "address"
        },
        {
          "internalType": "uint256",
          "name": "tokenId",
          "type": "uint256"
        }
      ],
      "name": "transferFrom",
      "outputs": [],
      "stateMutability": "nonpayable",
      "type": "function"
    },
    {
      "inputs": [
        {
          "internalType": "address",
          "name": "newOwner",
          "type": "address"
        }
      ],
      "name": "transferOwnership",
      "outputs": [],
      "stateMutability": "nonpayable",
      "type": "function"
    },
    {
      "inputs": [
        {
          "internalType": "address",
          "name": "mainBrandAddress",
          "type": "address"
        },
        {
          "internalType": "string",
          "name": "brandName",
          "type": "string"
        }
      ],
      "name": "setBrandContract",
      "outputs": [],
      "stateMutability": "nonpayable",
      "type": "function"
    },
    {
      "inputs": [
        {
          "internalType": "address",
          "name": "contractAddress",
          "type": "address"
        },
        {
          "components": [
            {
              "internalType": "string",
              "name": "name",
              "type": "string"
            },
            {
              "internalType": "address",
              "name": "mainBrandAddress",
              "type": "address"
            },
            {
              "internalType": "string",
              "name": "district",
              "type": "string"
            },
            {
              "internalType": "uint256",
              "name": "expiredDate",
              "type": "uint256"
            },
            {
              "internalType": "bool",
              "name": "active",
              "type": "bool"
            }
          ],
          "internalType": "struct OfficialStore.ContractBrand",
          "name": "contractBrandInfo",
          "type": "tuple"
        }
      ],
      "name": "setContractOS",
      "outputs": [],
      "stateMutability": "nonpayable",
      "type": "function"
    },
    {
      "inputs": [
        {
          "internalType": "address",
          "name": "contractAddress",
          "type": "address"
        }
      ],
      "name": "enableContractOS",
      "outputs": [],
      "stateMutability": "nonpayable",
      "type": "function"
    },
    {
      "inputs": [
        {
          "internalType": "address",
          "name": "contractAddress",
          "type": "address"
        }
      ],
      "name": "disableContractOS",
      "outputs": [],
      "stateMutability": "nonpayable",
      "type": "function"
    },
    {
      "inputs": [
        {
          "internalType": "address",
          "name": "contractAddress",
          "type": "address"
        },
        {
          "internalType": "uint256",
          "name": "ts",
          "type": "uint256"
        }
      ],
      "name": "extendContractOS",
      "outputs": [],
      "stateMutability": "nonpayable",
      "type": "function"
    },
    {
      "inputs": [
        {
          "internalType": "address",
          "name": "brandAddress",
          "type": "address"
        }
      ],
      "name": "getBrandFromAddress",
      "outputs": [
        {
          "internalType": "string",
          "name": "brandName",
          "type": "string"
        }
      ],
      "stateMutability": "view",
      "type": "function",
      "constant": true
    },
    {
      "inputs": [
        {
          "internalType": "address",
          "name": "contractAddress",
          "type": "address"
        }
      ],
      "name": "getContractBrandFromAddress",
      "outputs": [
        {
          "components": [
            {
              "internalType": "string",
              "name": "name",
              "type": "string"
            },
            {
              "internalType": "address",
              "name": "mainBrandAddress",
              "type": "address"
            },
            {
              "internalType": "string",
              "name": "district",
              "type": "string"
            },
            {
              "internalType": "uint256",
              "name": "expiredDate",
              "type": "uint256"
            },
            {
              "internalType": "bool",
              "name": "active",
              "type": "bool"
            }
          ],
          "internalType": "struct OfficialStore.ContractBrand",
          "name": "",
          "type": "tuple"
        }
      ],
      "stateMutability": "view",
      "type": "function",
      "constant": true
    },
    {
      "inputs": [
        {
          "internalType": "address",
          "name": "contractAddress",
          "type": "address"
        },
        {
          "internalType": "string",
          "name": "brandName",
          "type": "string"
        },
        {
          "internalType": "uint256",
          "name": "unixTimeNow",
          "type": "uint256"
        }
      ],
      "name": "isContractBrandActive",
      "outputs": [
        {
          "internalType": "string",
          "name": "active",
          "type": "string"
        }
      ],
      "stateMutability": "view",
      "type": "function",
      "constant": true
    },
    {
      "inputs": [
        {
          "internalType": "string",
          "name": "a",
          "type": "string"
        },
        {
          "internalType": "string",
          "name": "b",
          "type": "string"
        }
      ],
      "name": "compareStrings",
      "outputs": [
        {
          "internalType": "bool",
          "name": "",
          "type": "bool"
        }
      ],
      "stateMutability": "pure",
      "type": "function",
      "constant": true
    }
  ],
  "bytecode": "0x60806040523480156200001157600080fd5b506040518060400160405280600d81526020017f4f6666696369616c53746f7265000000000000000000000000000000000000008152506040518060400160405280600381526020017f4f53540000000000000000000000000000000000000000000000000000000000815250816000908051906020019062000096929190620001a6565b508060019080519060200190620000af929190620001a6565b505050620000d2620000c6620000d860201b60201c565b620000e060201b60201c565b620002bb565b600033905090565b6000600660009054906101000a900473ffffffffffffffffffffffffffffffffffffffff16905081600660006101000a81548173ffffffffffffffffffffffffffffffffffffffff021916908373ffffffffffffffffffffffffffffffffffffffff1602179055508173ffffffffffffffffffffffffffffffffffffffff168173ffffffffffffffffffffffffffffffffffffffff167f8be0079c531659141344cd1fd0a4f28419497f9722a3daafe3b4186f6b6457e060405160405180910390a35050565b828054620001b49062000256565b90600052602060002090601f016020900481019282620001d8576000855562000224565b82601f10620001f357805160ff191683800117855562000224565b8280016001018555821562000224579182015b828111156200022357825182559160200191906001019062000206565b5b50905062000233919062000237565b5090565b5b808211156200025257600081600090555060010162000238565b5090565b600060028204905060018216806200026f57607f821691505b602082108114156200028657620002856200028c565b5b50919050565b7f4e487b7100000000000000000000000000000000000000000000000000000000600052602260045260246000fd5b6133f380620002cb6000396000f3fe608060405234801561001057600080fd5b50600436106101735760003560e01c80637c0b5664116100de578063c381685011610097578063da30813111610071578063da3081311461046c578063e4d8ce7714610488578063e985e9c5146104a4578063f2fde38b146104d457610173565b8063c3816850146103f0578063c87b56dd14610420578063d1527da11461045057610173565b80637c0b56641461031c5780638da5cb5b1461034c57806395d89b411461036a578063a22cb46514610388578063b88d4fde146103a4578063bed34bba146103c057610173565b806328e3e3de1161013057806328e3e3de1461024a5780633a05bda41461026657806342842e0e146102965780636352211e146102b257806370a08231146102e2578063715018a61461031257610173565b806301ffc9a71461017857806306fdde03146101a8578063081812fc146101c6578063095ea7b3146101f65780630de317951461021257806323b872dd1461022e575b600080fd5b610192600480360381019061018d91906125e1565b6104f0565b60405161019f9190612a9e565b60405180910390f35b6101b06105d2565b6040516101bd9190612ab9565b60405180910390f35b6101e060048036038101906101db919061269f565b610664565b6040516101ed9190612a37565b60405180910390f35b610210600480360381019061020b91906125a5565b6106aa565b005b61022c600480360381019061022791906125a5565b6107c2565b005b61024860048036038101906102439190612390565b610815565b005b610264600480360381019061025f9190612551565b610875565b005b610280600480360381019061027b91906124ea565b61096f565b60405161028d9190612ab9565b60405180910390f35b6102b060048036038101906102ab9190612390565b610c3d565b005b6102cc60048036038101906102c7919061269f565b610c5d565b6040516102d99190612a37565b60405180910390f35b6102fc60048036038101906102f7919061232b565b610d0f565b6040516103099190612c5d565b60405180910390f35b61031a610dc7565b005b6103366004803603810190610331919061232b565b610ddb565b6040516103439190612c3b565b60405180910390f35b610354610fd3565b6040516103619190612a37565b60405180910390f35b610372610ffd565b60405161037f9190612ab9565b60405180910390f35b6103a2600480360381019061039d919061245a565b61108f565b005b6103be60048036038101906103b991906123df565b6110a5565b005b6103da60048036038101906103d59190612633565b611107565b6040516103e79190612a9e565b60405180910390f35b61040a6004803603810190610405919061232b565b611160565b6040516104179190612ab9565b60405180910390f35b61043a6004803603810190610435919061269f565b611231565b6040516104479190612ab9565b60405180910390f35b61046a6004803603810190610465919061232b565b611299565b005b61048660048036038101906104819190612496565b6112ff565b005b6104a2600480360381019061049d919061232b565b61135f565b005b6104be60048036038101906104b99190612354565b6113c5565b6040516104cb9190612a9e565b60405180910390f35b6104ee60048036038101906104e9919061232b565b611459565b005b60007f80ac58cd000000000000000000000000000000000000000000000000000000007bffffffffffffffffffffffffffffffffffffffffffffffffffffffff1916827bffffffffffffffffffffffffffffffffffffffffffffffffffffffff191614806105bb57507f5b5e139f000000000000000000000000000000000000000000000000000000007bffffffffffffffffffffffffffffffffffffffffffffffffffffffff1916827bffffffffffffffffffffffffffffffffffffffffffffffffffffffff1916145b806105cb57506105ca826114dd565b5b9050919050565b6060600080546105e190612ec4565b80601f016020809104026020016040519081016040528092919081815260200182805461060d90612ec4565b801561065a5780601f1061062f5761010080835404028352916020019161065a565b820191906000526020600020905b81548152906001019060200180831161063d57829003601f168201915b5050505050905090565b600061066f82611547565b6004600083815260200190815260200160002060009054906101000a900473ffffffffffffffffffffffffffffffffffffffff169050919050565b60006106b582610c5d565b90508073ffffffffffffffffffffffffffffffffffffffff168373ffffffffffffffffffffffffffffffffffffffff161415610726576040517f08c379a000000000000000000000000000000000000000000000000000000000815260040161071d90612bfb565b60405180910390fd5b8073ffffffffffffffffffffffffffffffffffffffff16610745611592565b73ffffffffffffffffffffffffffffffffffffffff16148061077457506107738161076e611592565b6113c5565b5b6107b3576040517f08c379a00000000000000000000000000000000000000000000000000000000081526004016107aa90612b9b565b60405180910390fd5b6107bd838361159a565b505050565b6107ca611653565b80600860008473ffffffffffffffffffffffffffffffffffffffff1673ffffffffffffffffffffffffffffffffffffffff168152602001908152602001600020600301819055505050565b610826610820611592565b826116d1565b610865576040517f08c379a000000000000000000000000000000000000000000000000000000000815260040161085c90612c1b565b60405180910390fd5b610870838383611766565b505050565b61087d611653565b80600860008473ffffffffffffffffffffffffffffffffffffffff1673ffffffffffffffffffffffffffffffffffffffff16815260200190815260200160002060008201518160000190805190602001906108d9929190612050565b5060208201518160010160006101000a81548173ffffffffffffffffffffffffffffffffffffffff021916908373ffffffffffffffffffffffffffffffffffffffff160217905550604082015181600201908051906020019061093d929190612050565b506060820151816003015560808201518160040160006101000a81548160ff0219169083151502179055509050505050565b6060600860008573ffffffffffffffffffffffffffffffffffffffff1673ffffffffffffffffffffffffffffffffffffffff16815260200190815260200160002060040160009054906101000a900460ff16610a02576040518060400160405280601781526020017f436f6e7472616374204272616e6420496e6163746976650000000000000000008152509050610c36565b610b3560076000600860008873ffffffffffffffffffffffffffffffffffffffff1673ffffffffffffffffffffffffffffffffffffffff16815260200190815260200160002060010160009054906101000a900473ffffffffffffffffffffffffffffffffffffffff1673ffffffffffffffffffffffffffffffffffffffff1673ffffffffffffffffffffffffffffffffffffffff1681526020019081526020016000208054610ab190612ec4565b80601f0160208091040260200160405190810160405280929190818152602001828054610add90612ec4565b8015610b2a5780601f10610aff57610100808354040283529160200191610b2a565b820191906000526020600020905b815481529060010190602001808311610b0d57829003601f168201915b505050505084611107565b610b76576040518060400160405280601a81526020017f436f6d70616e79206e6f74206f6666696369616c2073746f72650000000000008152509050610c36565b81600860008673ffffffffffffffffffffffffffffffffffffffff1673ffffffffffffffffffffffffffffffffffffffff168152602001908152602001600020600301541015610bfd576040518060400160405280601081526020017f436f6d70616e7920496e616374697665000000000000000000000000000000008152509050610c36565b6040518060400160405280600681526020017f414354495645000000000000000000000000000000000000000000000000000081525090505b9392505050565b610c58838383604051806020016040528060008152506110a5565b505050565b6000806002600084815260200190815260200160002060009054906101000a900473ffffffffffffffffffffffffffffffffffffffff169050600073ffffffffffffffffffffffffffffffffffffffff168173ffffffffffffffffffffffffffffffffffffffff161415610d06576040517f08c379a0000000000000000000000000000000000000000000000000000000008152600401610cfd90612bdb565b60405180910390fd5b80915050919050565b60008073ffffffffffffffffffffffffffffffffffffffff168273ffffffffffffffffffffffffffffffffffffffff161415610d80576040517f08c379a0000000000000000000000000000000000000000000000000000000008152600401610d7790612b7b565b60405180910390fd5b600360008373ffffffffffffffffffffffffffffffffffffffff1673ffffffffffffffffffffffffffffffffffffffff168152602001908152602001600020549050919050565b610dcf611653565b610dd960006119cd565b565b610de36120d6565b600860008373ffffffffffffffffffffffffffffffffffffffff1673ffffffffffffffffffffffffffffffffffffffff1681526020019081526020016000206040518060a0016040529081600082018054610e3d90612ec4565b80601f0160208091040260200160405190810160405280929190818152602001828054610e6990612ec4565b8015610eb65780601f10610e8b57610100808354040283529160200191610eb6565b820191906000526020600020905b815481529060010190602001808311610e9957829003601f168201915b505050505081526020016001820160009054906101000a900473ffffffffffffffffffffffffffffffffffffffff1673ffffffffffffffffffffffffffffffffffffffff1673ffffffffffffffffffffffffffffffffffffffff168152602001600282018054610f2590612ec4565b80601f0160208091040260200160405190810160405280929190818152602001828054610f5190612ec4565b8015610f9e5780601f10610f7357610100808354040283529160200191610f9e565b820191906000526020600020905b815481529060010190602001808311610f8157829003601f168201915b50505050508152602001600382015481526020016004820160009054906101000a900460ff1615151515815250509050919050565b6000600660009054906101000a900473ffffffffffffffffffffffffffffffffffffffff16905090565b60606001805461100c90612ec4565b80601f016020809104026020016040519081016040528092919081815260200182805461103890612ec4565b80156110855780601f1061105a57610100808354040283529160200191611085565b820191906000526020600020905b81548152906001019060200180831161106857829003601f168201915b5050505050905090565b6110a161109a611592565b8383611a93565b5050565b6110b66110b0611592565b836116d1565b6110f5576040517f08c379a00000000000000000000000000000000000000000000000000000000081526004016110ec90612c1b565b60405180910390fd5b61110184848484611c00565b50505050565b60008160405160200161111a91906129fc565b604051602081830303815290604052805190602001208360405160200161114191906129fc565b6040516020818303038152906040528051906020012014905092915050565b6060600760008373ffffffffffffffffffffffffffffffffffffffff1673ffffffffffffffffffffffffffffffffffffffff16815260200190815260200160002080546111ac90612ec4565b80601f01602080910402602001604051908101604052809291908181526020018280546111d890612ec4565b80156112255780601f106111fa57610100808354040283529160200191611225565b820191906000526020600020905b81548152906001019060200180831161120857829003601f168201915b50505050509050919050565b606061123c82611547565b6000611246611c5c565b905060008151116112665760405180602001604052806000815250611291565b8061127084611c73565b604051602001611281929190612a13565b6040516020818303038152906040525b915050919050565b6112a1611653565b6001600860008373ffffffffffffffffffffffffffffffffffffffff1673ffffffffffffffffffffffffffffffffffffffff16815260200190815260200160002060040160006101000a81548160ff02191690831515021790555050565b611307611653565b80600760008473ffffffffffffffffffffffffffffffffffffffff1673ffffffffffffffffffffffffffffffffffffffff168152602001908152602001600020908051906020019061135a929190612050565b505050565b611367611653565b6000600860008373ffffffffffffffffffffffffffffffffffffffff1673ffffffffffffffffffffffffffffffffffffffff16815260200190815260200160002060040160006101000a81548160ff02191690831515021790555050565b6000600560008473ffffffffffffffffffffffffffffffffffffffff1673ffffffffffffffffffffffffffffffffffffffff16815260200190815260200160002060008373ffffffffffffffffffffffffffffffffffffffff1673ffffffffffffffffffffffffffffffffffffffff16815260200190815260200160002060009054906101000a900460ff16905092915050565b611461611653565b600073ffffffffffffffffffffffffffffffffffffffff168173ffffffffffffffffffffffffffffffffffffffff1614156114d1576040517f08c379a00000000000000000000000000000000000000000000000000000000081526004016114c890612afb565b60405180910390fd5b6114da816119cd565b50565b60007f01ffc9a7000000000000000000000000000000000000000000000000000000007bffffffffffffffffffffffffffffffffffffffffffffffffffffffff1916827bffffffffffffffffffffffffffffffffffffffffffffffffffffffff1916149050919050565b61155081611e20565b61158f576040517f08c379a000000000000000000000000000000000000000000000000000000000815260040161158690612bdb565b60405180910390fd5b50565b600033905090565b816004600083815260200190815260200160002060006101000a81548173ffffffffffffffffffffffffffffffffffffffff021916908373ffffffffffffffffffffffffffffffffffffffff160217905550808273ffffffffffffffffffffffffffffffffffffffff1661160d83610c5d565b73ffffffffffffffffffffffffffffffffffffffff167f8c5be1e5ebec7d5bd14f71427d1e84f3dd0314c0f7b2291e5b200ac8c7c3b92560405160405180910390a45050565b61165b611592565b73ffffffffffffffffffffffffffffffffffffffff16611679610fd3565b73ffffffffffffffffffffffffffffffffffffffff16146116cf576040517f08c379a00000000000000000000000000000000000000000000000000000000081526004016116c690612bbb565b60405180910390fd5b565b6000806116dd83610c5d565b90508073ffffffffffffffffffffffffffffffffffffffff168473ffffffffffffffffffffffffffffffffffffffff16148061171f575061171e81856113c5565b5b8061175d57508373ffffffffffffffffffffffffffffffffffffffff1661174584610664565b73ffffffffffffffffffffffffffffffffffffffff16145b91505092915050565b8273ffffffffffffffffffffffffffffffffffffffff1661178682610c5d565b73ffffffffffffffffffffffffffffffffffffffff16146117dc576040517f08c379a00000000000000000000000000000000000000000000000000000000081526004016117d390612b1b565b60405180910390fd5b600073ffffffffffffffffffffffffffffffffffffffff168273ffffffffffffffffffffffffffffffffffffffff16141561184c576040517f08c379a000000000000000000000000000000000000000000000000000000000815260040161184390612b3b565b60405180910390fd5b611857838383611e8c565b61186260008261159a565b6001600360008573ffffffffffffffffffffffffffffffffffffffff1673ffffffffffffffffffffffffffffffffffffffff16815260200190815260200160002060008282546118b29190612dda565b925050819055506001600360008473ffffffffffffffffffffffffffffffffffffffff1673ffffffffffffffffffffffffffffffffffffffff16815260200190815260200160002060008282546119099190612d53565b92505081905550816002600083815260200190815260200160002060006101000a81548173ffffffffffffffffffffffffffffffffffffffff021916908373ffffffffffffffffffffffffffffffffffffffff160217905550808273ffffffffffffffffffffffffffffffffffffffff168473ffffffffffffffffffffffffffffffffffffffff167fddf252ad1be2c89b69c2b068fc378daa952ba7f163c4a11628f55a4df523b3ef60405160405180910390a46119c8838383611e91565b505050565b6000600660009054906101000a900473ffffffffffffffffffffffffffffffffffffffff16905081600660006101000a81548173ffffffffffffffffffffffffffffffffffffffff021916908373ffffffffffffffffffffffffffffffffffffffff1602179055508173ffffffffffffffffffffffffffffffffffffffff168173ffffffffffffffffffffffffffffffffffffffff167f8be0079c531659141344cd1fd0a4f28419497f9722a3daafe3b4186f6b6457e060405160405180910390a35050565b8173ffffffffffffffffffffffffffffffffffffffff168373ffffffffffffffffffffffffffffffffffffffff161415611b02576040517f08c379a0000000000000000000000000000000000000000000000000000000008152600401611af990612b5b565b60405180910390fd5b80600560008573ffffffffffffffffffffffffffffffffffffffff1673ffffffffffffffffffffffffffffffffffffffff16815260200190815260200160002060008473ffffffffffffffffffffffffffffffffffffffff1673ffffffffffffffffffffffffffffffffffffffff16815260200190815260200160002060006101000a81548160ff0219169083151502179055508173ffffffffffffffffffffffffffffffffffffffff168373ffffffffffffffffffffffffffffffffffffffff167f17307eab39ab6107e8899845ad3d59bd9653f200f220920489ca2b5937696c3183604051611bf39190612a9e565b60405180910390a3505050565b611c0b848484611766565b611c1784848484611e96565b611c56576040517f08c379a0000000000000000000000000000000000000000000000000000000008152600401611c4d90612adb565b60405180910390fd5b50505050565b606060405180602001604052806000815250905090565b60606000821415611cbb576040518060400160405280600181526020017f30000000000000000000000000000000000000000000000000000000000000008152509050611e1b565b600082905060005b60008214611ced578080611cd690612f27565b915050600a82611ce69190612da9565b9150611cc3565b60008167ffffffffffffffff811115611d2f577f4e487b7100000000000000000000000000000000000000000000000000000000600052604160045260246000fd5b6040519080825280601f01601f191660200182016040528015611d615781602001600182028036833780820191505090505b5090505b60008514611e1457600182611d7a9190612dda565b9150600a85611d899190612f70565b6030611d959190612d53565b60f81b818381518110611dd1577f4e487b7100000000000000000000000000000000000000000000000000000000600052603260045260246000fd5b60200101907effffffffffffffffffffffffffffffffffffffffffffffffffffffffffffff1916908160001a905350600a85611e0d9190612da9565b9450611d65565b8093505050505b919050565b60008073ffffffffffffffffffffffffffffffffffffffff166002600084815260200190815260200160002060009054906101000a900473ffffffffffffffffffffffffffffffffffffffff1673ffffffffffffffffffffffffffffffffffffffff1614159050919050565b505050565b505050565b6000611eb78473ffffffffffffffffffffffffffffffffffffffff1661202d565b15612020578373ffffffffffffffffffffffffffffffffffffffff1663150b7a02611ee0611592565b8786866040518563ffffffff1660e01b8152600401611f029493929190612a52565b602060405180830381600087803b158015611f1c57600080fd5b505af1925050508015611f4d57506040513d601f19601f82011682018060405250810190611f4a919061260a565b60015b611fd0573d8060008114611f7d576040519150601f19603f3d011682016040523d82523d6000602084013e611f82565b606091505b50600081511415611fc8576040517f08c379a0000000000000000000000000000000000000000000000000000000008152600401611fbf90612adb565b60405180910390fd5b805181602001fd5b63150b7a0260e01b7bffffffffffffffffffffffffffffffffffffffffffffffffffffffff1916817bffffffffffffffffffffffffffffffffffffffffffffffffffffffff191614915050612025565b600190505b949350505050565b6000808273ffffffffffffffffffffffffffffffffffffffff163b119050919050565b82805461205c90612ec4565b90600052602060002090601f01602090048101928261207e57600085556120c5565b82601f1061209757805160ff19168380011785556120c5565b828001600101855582156120c5579182015b828111156120c45782518255916020019190600101906120a9565b5b5090506120d2919061211d565b5090565b6040518060a0016040528060608152602001600073ffffffffffffffffffffffffffffffffffffffff16815260200160608152602001600081526020016000151581525090565b5b8082111561213657600081600090555060010161211e565b5090565b600061214d61214884612c9d565b612c78565b90508281526020810184848401111561216557600080fd5b612170848285612e82565b509392505050565b600061218b61218684612cce565b612c78565b9050828152602081018484840111156121a357600080fd5b6121ae848285612e82565b509392505050565b6000813590506121c581613361565b92915050565b6000813590506121da81613378565b92915050565b6000813590506121ef8161338f565b92915050565b6000815190506122048161338f565b92915050565b600082601f83011261221b57600080fd5b813561222b84826020860161213a565b91505092915050565b600082601f83011261224557600080fd5b8135612255848260208601612178565b91505092915050565b600060a0828403121561227057600080fd5b61227a60a0612c78565b9050600082013567ffffffffffffffff81111561229657600080fd5b6122a284828501612234565b60008301525060206122b6848285016121b6565b602083015250604082013567ffffffffffffffff8111156122d657600080fd5b6122e284828501612234565b60408301525060606122f684828501612316565b606083015250608061230a848285016121cb565b60808301525092915050565b600081359050612325816133a6565b92915050565b60006020828403121561233d57600080fd5b600061234b848285016121b6565b91505092915050565b6000806040838503121561236757600080fd5b6000612375858286016121b6565b9250506020612386858286016121b6565b9150509250929050565b6000806000606084860312156123a557600080fd5b60006123b3868287016121b6565b93505060206123c4868287016121b6565b92505060406123d586828701612316565b9150509250925092565b600080600080608085870312156123f557600080fd5b6000612403878288016121b6565b9450506020612414878288016121b6565b935050604061242587828801612316565b925050606085013567ffffffffffffffff81111561244257600080fd5b61244e8782880161220a565b91505092959194509250565b6000806040838503121561246d57600080fd5b600061247b858286016121b6565b925050602061248c858286016121cb565b9150509250929050565b600080604083850312156124a957600080fd5b60006124b7858286016121b6565b925050602083013567ffffffffffffffff8111156124d457600080fd5b6124e085828601612234565b9150509250929050565b6000806000606084860312156124ff57600080fd5b600061250d868287016121b6565b935050602084013567ffffffffffffffff81111561252a57600080fd5b61253686828701612234565b925050604061254786828701612316565b9150509250925092565b6000806040838503121561256457600080fd5b6000612572858286016121b6565b925050602083013567ffffffffffffffff81111561258f57600080fd5b61259b8582860161225e565b9150509250929050565b600080604083850312156125b857600080fd5b60006125c6858286016121b6565b92505060206125d785828601612316565b9150509250929050565b6000602082840312156125f357600080fd5b6000612601848285016121e0565b91505092915050565b60006020828403121561261c57600080fd5b600061262a848285016121f5565b91505092915050565b6000806040838503121561264657600080fd5b600083013567ffffffffffffffff81111561266057600080fd5b61266c85828601612234565b925050602083013567ffffffffffffffff81111561268957600080fd5b61269585828601612234565b9150509250929050565b6000602082840312156126b157600080fd5b60006126bf84828501612316565b91505092915050565b6126d181612e0e565b82525050565b6126e081612e0e565b82525050565b6126ef81612e20565b82525050565b6126fe81612e20565b82525050565b600061270f82612cff565b6127198185612d15565b9350612729818560208601612e91565b6127328161305d565b840191505092915050565b600061274882612d0a565b6127528185612d26565b9350612762818560208601612e91565b61276b8161305d565b840191505092915050565b600061278182612d0a565b61278b8185612d37565b935061279b818560208601612e91565b6127a48161305d565b840191505092915050565b60006127ba82612d0a565b6127c48185612d48565b93506127d4818560208601612e91565b80840191505092915050565b60006127ed603283612d37565b91506127f88261306e565b604082019050919050565b6000612810602683612d37565b915061281b826130bd565b604082019050919050565b6000612833602583612d37565b915061283e8261310c565b604082019050919050565b6000612856602483612d37565b91506128618261315b565b604082019050919050565b6000612879601983612d37565b9150612884826131aa565b602082019050919050565b600061289c602983612d37565b91506128a7826131d3565b604082019050919050565b60006128bf603e83612d37565b91506128ca82613222565b604082019050919050565b60006128e2602083612d37565b91506128ed82613271565b602082019050919050565b6000612905601883612d37565b91506129108261329a565b602082019050919050565b6000612928602183612d37565b9150612933826132c3565b604082019050919050565b600061294b602e83612d37565b915061295682613312565b604082019050919050565b600060a083016000830151848203600086015261297e828261273d565b915050602083015161299360208601826126c8565b50604083015184820360408601526129ab828261273d565b91505060608301516129c060608601826129de565b5060808301516129d360808601826126e6565b508091505092915050565b6129e781612e78565b82525050565b6129f681612e78565b82525050565b6000612a0882846127af565b915081905092915050565b6000612a1f82856127af565b9150612a2b82846127af565b91508190509392505050565b6000602082019050612a4c60008301846126d7565b92915050565b6000608082019050612a6760008301876126d7565b612a7460208301866126d7565b612a8160408301856129ed565b8181036060830152612a938184612704565b905095945050505050565b6000602082019050612ab360008301846126f5565b92915050565b60006020820190508181036000830152612ad38184612776565b905092915050565b60006020820190508181036000830152612af4816127e0565b9050919050565b60006020820190508181036000830152612b1481612803565b9050919050565b60006020820190508181036000830152612b3481612826565b9050919050565b60006020820190508181036000830152612b5481612849565b9050919050565b60006020820190508181036000830152612b748161286c565b9050919050565b60006020820190508181036000830152612b948161288f565b9050919050565b60006020820190508181036000830152612bb4816128b2565b9050919050565b60006020820190508181036000830152612bd4816128d5565b9050919050565b60006020820190508181036000830152612bf4816128f8565b9050919050565b60006020820190508181036000830152612c148161291b565b9050919050565b60006020820190508181036000830152612c348161293e565b9050919050565b60006020820190508181036000830152612c558184612961565b905092915050565b6000602082019050612c7260008301846129ed565b92915050565b6000612c82612c93565b9050612c8e8282612ef6565b919050565b6000604051905090565b600067ffffffffffffffff821115612cb857612cb761302e565b5b612cc18261305d565b9050602081019050919050565b600067ffffffffffffffff821115612ce957612ce861302e565b5b612cf28261305d565b9050602081019050919050565b600081519050919050565b600081519050919050565b600082825260208201905092915050565b600082825260208201905092915050565b600082825260208201905092915050565b600081905092915050565b6000612d5e82612e78565b9150612d6983612e78565b9250827fffffffffffffffffffffffffffffffffffffffffffffffffffffffffffffffff03821115612d9e57612d9d612fa1565b5b828201905092915050565b6000612db482612e78565b9150612dbf83612e78565b925082612dcf57612dce612fd0565b5b828204905092915050565b6000612de582612e78565b9150612df083612e78565b925082821015612e0357612e02612fa1565b5b828203905092915050565b6000612e1982612e58565b9050919050565b60008115159050919050565b60007fffffffff0000000000000000000000000000000000000000000000000000000082169050919050565b600073ffffffffffffffffffffffffffffffffffffffff82169050919050565b6000819050919050565b82818337600083830152505050565b60005b83811015612eaf578082015181840152602081019050612e94565b83811115612ebe576000848401525b50505050565b60006002820490506001821680612edc57607f821691505b60208210811415612ef057612eef612fff565b5b50919050565b612eff8261305d565b810181811067ffffffffffffffff82111715612f1e57612f1d61302e565b5b80604052505050565b6000612f3282612e78565b91507fffffffffffffffffffffffffffffffffffffffffffffffffffffffffffffffff821415612f6557612f64612fa1565b5b600182019050919050565b6000612f7b82612e78565b9150612f8683612e78565b925082612f9657612f95612fd0565b5b828206905092915050565b7f4e487b7100000000000000000000000000000000000000000000000000000000600052601160045260246000fd5b7f4e487b7100000000000000000000000000000000000000000000000000000000600052601260045260246000fd5b7f4e487b7100000000000000000000000000000000000000000000000000000000600052602260045260246000fd5b7f4e487b7100000000000000000000000000000000000000000000000000000000600052604160045260246000fd5b6000601f19601f8301169050919050565b7f4552433732313a207472616e7366657220746f206e6f6e20455243373231526560008201527f63656976657220696d706c656d656e7465720000000000000000000000000000602082015250565b7f4f776e61626c653a206e6577206f776e657220697320746865207a65726f206160008201527f6464726573730000000000000000000000000000000000000000000000000000602082015250565b7f4552433732313a207472616e736665722066726f6d20696e636f72726563742060008201527f6f776e6572000000000000000000000000000000000000000000000000000000602082015250565b7f4552433732313a207472616e7366657220746f20746865207a65726f2061646460008201527f7265737300000000000000000000000000000000000000000000000000000000602082015250565b7f4552433732313a20617070726f766520746f2063616c6c657200000000000000600082015250565b7f4552433732313a2061646472657373207a65726f206973206e6f74206120766160008201527f6c6964206f776e65720000000000000000000000000000000000000000000000602082015250565b7f4552433732313a20617070726f76652063616c6c6572206973206e6f7420746f60008201527f6b656e206f776e6572206e6f7220617070726f76656420666f7220616c6c0000602082015250565b7f4f776e61626c653a2063616c6c6572206973206e6f7420746865206f776e6572600082015250565b7f4552433732313a20696e76616c696420746f6b656e2049440000000000000000600082015250565b7f4552433732313a20617070726f76616c20746f2063757272656e74206f776e6560008201527f7200000000000000000000000000000000000000000000000000000000000000602082015250565b7f4552433732313a2063616c6c6572206973206e6f7420746f6b656e206f776e6560008201527f72206e6f7220617070726f766564000000000000000000000000000000000000602082015250565b61336a81612e0e565b811461337557600080fd5b50565b61338181612e20565b811461338c57600080fd5b50565b61339881612e2c565b81146133a357600080fd5b50565b6133af81612e78565b81146133ba57600080fd5b5056fea26469706673582212209be5c44b4b6a2d67ff04edcadf6ef23019835b35f836fb9aa22a0647b375b10964736f6c63430008010033",
  "immutableReferences": {},
  "source": "// SPDX-License-Identifier: UNLICENSED\npragma solidity >=0.7.0 <0.9.0;\n\nimport \"../node_modules/@openzeppelin/contracts/token/ERC721/ERC721.sol\";\nimport \"../node_modules/@openzeppelin/contracts/access/Ownable.sol\";\n\ncontract OfficialStore is ERC721, Ownable {\n\n    /*\n    * ContractBrand is structure of brand and contract definition.\n    * `name` will represent name of toko that assign as principle from Brand\n    * `mainBrandAddress` will represent contract brand address\n    * `district` will represent location of brand distribution\n    * `expiredDate` will represent unit timestamp the brand will active\n    * `active` will represent activation brand as principle official store\n    */\n    struct ContractBrand {\n        string name;\n        address mainBrandAddress;\n        string district;\n        uint256 expiredDate;\n        bool active;\n    }\n\n    // _mainAddressBrand represent wallet address of brand assign\n    mapping (address => string) private _mainAddressBrand;\n\n    // _contractBrandList represent list contract brand from the partners\n    mapping (address => ContractBrand) private _contractBrandList;\n\n    constructor() ERC721(\"OfficialStore\", \"OST\") {\n    }\n\n\n    /* \n    * setBrandContract will set an address as official store brand name\n    * mainBrandAddress is destination the address assign as brand\n    * brandName will represent brand name\n    */\n    function setBrandContract(address mainBrandAddress, string memory brandName) external onlyOwner() {\n        _mainAddressBrand[mainBrandAddress] = brandName;\n    }\n\n    /* \n    * setContractOS will set an address as principle official store brand\n    * contractAddress is destination the address assign as official store\n    * contractBrandInfo will keep information of brand info\n    */\n    function setContractOS(address contractAddress, ContractBrand memory contractBrandInfo) external onlyOwner() {\n        _contractBrandList[contractAddress] = contractBrandInfo;\n    }\n\n    /* \n    * enableContractOS will set active existing address to activate the brand official store\n    * contractAddress is destination the address assign enable as the official store\n    */\n    function enableContractOS(address contractAddress) external onlyOwner() {\n        _contractBrandList[contractAddress].active = true;\n    }\n\n    /* \n    * disableContractOS will set inactive existing address to activate the brand official store\n    * contractAddress is destination the address to disable as the official store\n    */\n    function disableContractOS(address contractAddress) external onlyOwner() {\n        _contractBrandList[contractAddress].active = false;\n    }\n\n    /* \n    * extendContractOS will extend the contract as official store\n    * contractAddress is destination the address assign to extend\n    * ts is unix timestamp extend the contract address\n    */\n    function extendContractOS(address contractAddress, uint256 ts) external onlyOwner() {\n        _contractBrandList[contractAddress].expiredDate = ts;\n    }\n\n    /* \n    * getBrandFromAddress will show information brand\n    * will return brand name information\n    */\n    function getBrandFromAddress(address brandAddress) public view returns (string memory brandName) {\n        return _mainAddressBrand[brandAddress];\n    }\n\n    /* \n    * getContractBrandFromAddress will show information contract brand and principle\n    */\n    function getContractBrandFromAddress(address contractAddress) public view returns (ContractBrand memory) {\n        return _contractBrandList[contractAddress];\n    }\n\n    /* \n    * isContractBrandActive will check contract address still active or not as official store.\n    * contractAddress will represent the contract address of principle official store.\n    * brandName will contain check what brand assign to the contract.\n    * unixTimeNow will contain availability of time that assign.\n    */\n    function isContractBrandActive(address contractAddress, string memory brandName, uint256 unixTimeNow) public view returns (string memory active) {\n        if (!_contractBrandList[contractAddress].active) {\n            return \"Contract Brand Inactive\";\n        }\n\n        if (!compareStrings(_mainAddressBrand[_contractBrandList[contractAddress].mainBrandAddress], brandName)) {\n            return \"Company not official store\";\n        }\n\n        if (_contractBrandList[contractAddress].expiredDate < unixTimeNow) {\n            return \"Company Inactive\";\n        }\n\n        return \"ACTIVE\";\n    }\n\n    // compareStrings from the brand\n    function compareStrings(string memory a, string memory b) public pure returns (bool) {\n        return keccak256(abi.encodePacked(a)) == keccak256(abi.encodePacked(b));\n    }\n\n    \n}",
  "sourcePath": "/Users/safri/Desktop/workspace/sc-official-store/contracts/OfficialStore.sol",
  "compiler": {
    "name": "solc",
    "version": "0.8.1+commit.df193b15.Emscripten.clang"
  },
  "schemaVersion": "3.4.9",
  "updatedAt": "2022-10-21T03:36:32.294Z",
  "networkType": "ethereum",
  "devdoc": {
    "kind": "dev",
    "methods": {
      "approve(address,uint256)": {
        "details": "See {IERC721-approve}."
      },
      "balanceOf(address)": {
        "details": "See {IERC721-balanceOf}."
      },
      "getApproved(uint256)": {
        "details": "See {IERC721-getApproved}."
      },
      "isApprovedForAll(address,address)": {
        "details": "See {IERC721-isApprovedForAll}."
      },
      "name()": {
        "details": "See {IERC721Metadata-name}."
      },
      "owner()": {
        "details": "Returns the address of the current owner."
      },
      "ownerOf(uint256)": {
        "details": "See {IERC721-ownerOf}."
      },
      "renounceOwnership()": {
        "details": "Leaves the contract without owner. It will not be possible to call `onlyOwner` functions anymore. Can only be called by the current owner. NOTE: Renouncing ownership will leave the contract without an owner, thereby removing any functionality that is only available to the owner."
      },
      "safeTransferFrom(address,address,uint256)": {
        "details": "See {IERC721-safeTransferFrom}."
      },
      "safeTransferFrom(address,address,uint256,bytes)": {
        "details": "See {IERC721-safeTransferFrom}."
      },
      "setApprovalForAll(address,bool)": {
        "details": "See {IERC721-setApprovalForAll}."
      },
      "supportsInterface(bytes4)": {
        "details": "See {IERC165-supportsInterface}."
      },
      "symbol()": {
        "details": "See {IERC721Metadata-symbol}."
      },
      "tokenURI(uint256)": {
        "details": "See {IERC721Metadata-tokenURI}."
      },
      "transferFrom(address,address,uint256)": {
        "details": "See {IERC721-transferFrom}."
      },
      "transferOwnership(address)": {
        "details": "Transfers ownership of the contract to a new account (`newOwner`). Can only be called by the current owner."
      }
    },
    "version": 1
  },
  "userdoc": {
    "kind": "user",
    "methods": {},
    "version": 1
  }
}